:100000000C9434000C9451000C9451000C94510049
:100010000C9451000C9451000C9451000C9451001C
:100020000C9451000C9451000C9451000C9451000C
:100030000C9451000C9451000C94E0010C9451006C
:100040000C9451000C9451000C9451000C945100EC
:100050000C9451000C9451000C9451000C945100DC
:100060000C9451000C94510011241FBECFEFD8E026
:10007000DEBFCDBF15E0A0E0B1E0ECE0F1E102C0F1
:1000800005900D92A632B107D9F725E0A6E2B5E0BA
:1000900001C01D92AE33B207E1F70E9453000C94E9
:1000A0007C080C940000CDB7DEB7E3970FB6F89448
:1000B000DEBF0FBECDBF0E9415010E945F010E94EE
:1000C0006B0460E080E00E944B0447E150E060E098
:1000D00070E081E095E00E94320387E084B98FE010
:1000E00087B98AB9289862E080E00E944B044EE00C
:1000F00050E060E070E088E195E00E94320392E019
:100100008BE29F931F9225E22F9321E02F931F9262
:100110008F931F921F928F9323E02F931F928F93A1
:100120009F931F928F930F2EF8E28F2EF02D912C1C
:100130000F2EF3E0AF2EF02D0F2EF8E2CF2EF02D84
:10014000D12C6894EE24E1F808E210E021E048E2C6
:1001500050E060E0CE0101960E94D405CE01879662
:100160000E948A02CE0101960E94EF0665E0CE0150
:1001700001960E943506CE0101960E94CE064BE400
:1001800052E06CE370E0CE0101960E94F5064AE56C
:1001900052E06CE370E0CE0101960E94F50640E764
:1001A00051E06CE370E0CE0101960E94F50640E755
:1001B00051E06CE370E0CE0101960E94F5064DEA35
:1001C00052E06CE370E0CE0101960E94F50642E930
:1001D00051E06CE370E0CE0101960E94F50645EC1B
:1001E00051E06CE370E0CE0101960E94F50647E213
:1001F00052E06CE370E0CE0101960E94F5064BEDF3
:1002000051E06CE370E0CE0101960E94F50640E7F4
:1002100051E06CE370E0CE0101960E94F5060FB646
:10022000F894DEBF0FBECDBFFFCF1092800082E0FA
:10023000809381001092850010928400089580912F
:10024000840090918500089520918400309185006C
:10025000A901481B590BCA0108950F931F93CF930F
:10026000DF93009184001091850020ED37E0829F9C
:10027000E001839FD00D929FD00D1124C8010E94F0
:1002800024018C179D07D0F3DF91CF911F910F911F
:1002900008950F931F93CF93DF93009184001091E3
:1002A0008500EC01CC0FDD1FC8010E9424018C17D2
:1002B0009D07D0F3DF91CF911F910F91089584B5E1
:1002C000826084BD82E085BD98EC97BD80936E000E
:1002D00078940895FF920F931F93CF93DF938091AB
:1002E000260590912705A0912805B0912905892B15
:1002F0008A2B8B2B09F45EC0F12C01E010E022C0A8
:1003000020818A81A80102C0440F551F8A95E2F717
:10031000CA018095822380830E941F0198878F8362
:10032000F3944F2D50E060E070E0809126059091AD
:100330002705A0912805B0912905481759076A0794
:100340007B07C0F5EF2DF0E0EE0FFF1FE65DFA4FE3
:10035000C081D1818F8198850E942401282F392F57
:10036000E881F9818B819C81009751F24D815E81FA
:100370002417350780F42817390790F220818A81E5
:10038000A80102C0440F551F8A95E2F7CA01809563
:1003900082238083C5CF80812A81A80102C0440FB7
:1003A000551F2A95E2F7842B80830E941F019887AE
:1003B0008F83B6CFDF91CF911F910F91FF9008955A
:1003C0001F920F920FB60F9211242F933F934F93CA
:1003D0005F936F937F938F939F93AF93BF93EF93AD
:1003E000FF930E946A01FF91EF91BF91AF919F919E
:1003F0008F917F916F915F914F913F912F910F90CE
:100400000FBE0F901F9018959F92AF92BF92CF9200
:10041000DF92EF92FF920F931F93CF93DF9300D061
:1004200000D000D0CDB7DEB78D839E835B01942EC4
:10043000A90198011E2D60E874E88EE190E00E9409
:100440003A0869017A01ED81FE81B182A08292822F
:10045000A12FB0E00E94710869837A838B839C830B
:1004600024E630E040E050E00E943A08ED81FE8151
:1004700034832383D682C58210861782CF010F90E2
:100480000F900F900F900F900F90DF91CF911F91D1
:100490000F91FF90EF90DF90CF90BF90AF909F9023
:1004A0000895CF93DF93C82FD92F9A01AB0160E84D
:1004B00074E88EE190E00E943A083E832D83DF913C
:1004C000CF910895CF93DF9300D000D000D0CDB767
:1004D000DEB78D839E83ED81FE8125813681A62F37
:1004E000B0E00E94620869837A838B839C8324E650
:1004F00030E040E050E00E943A08ED81FE81348314
:1005000023830F900F900F900F900F900F90DF911B
:10051000CF910895CF92DF92EF92FF92A82FB92F3B
:10052000C0902605D0902705E0902805F090290579
:10053000C114D104E104F104B1F080E0E82FF0E04F
:10054000EE0FFF1FE65DFA4F208131812A173B072E
:10055000F1F08F5F482F50E060E070E04C155D05D2
:100560006E057F0558F3F601EE0FFF1FE65DFA4FAB
:10057000B183A0838FEFC81AD80AE80AF80AC0929C
:100580002605D0922705E0922805F0922905FF90D4
:10059000EF90DF90CF9008958CE08093B800109298
:1005A000B90084E18093BC0008951092BC000895C6
:1005B000ECEBF0E08081846A808380818823ECF713
:1005C0000895ECEBF0E08081846980830895809346
:1005D000BB0084E88093BC00ECEBF0E080818823D2
:1005E000ECF70895CF93DF930E94D80288E70E942A
:1005F000E70280E40E94E702C0E0D4E080E00E94CD
:10060000E70221972097D1F70E94E102DF91CF9175
:1006100008950F931F93CF93DF93C82F0E94D802A2
:1006200088E70E94E70280E40E94E7020C2E000C9B
:10063000DD0B8E01000F111F000F111F0C0F1D1F6E
:10064000E801CA57DD4F05571D4F89910E94E70207
:10065000C017D107D1F70E94E102DF91CF911F911E
:100660000F910895CF92DF92EF92FF920F931F9315
:10067000CF93DF93042F152F262F372F6801790191
:1006800041E0C41AD108E108F10801301105210543
:10069000310591F0082F192FC0E0D0E0F8018191C9
:1006A0008F010E9409032196CE01A0E0B0E08C15D5
:1006B0009D05AE05BF0590F3DF91CF911F910F917E
:1006C000FF90EF90DF90CF9008952F923F924F923E
:1006D0005F926F927F928F929F92AF92BF92CF92D2
:1006E000DF92EF92FF92CF93DF93CDB7DEB72897DB
:1006F0000FB6F894DEBF0FBECDBF69837A838B83BC
:100700009C8329813A814B815C81812C912C5401FD
:10071000C12CD12C76010F2EFAE04F2E512C612CDA
:10072000712CF02D232B242B252BC9F480E30E9460
:1007300009039AC069817A818B819C81A30192010E
:100740000E943A0889819A81AB81BC810A97A105F0
:10075000B10508F44DC029833A834B835C83D701EC
:10076000C601880F991FAA1FBB1F880F991FAA1FB8
:10077000BB1F8C0D9D1DAE1DBF1D6C017D01CC0CE2
:10078000DD1CEE1CFF1C69817A818B819C81A30199
:1007900092010E943A086D837E838F839887C60EEC
:1007A000D71EE81EF91ED701C601880F991FAA1F80
:1007B000BB1F880F991FAA1FBB1F8C0D9D1DAE1D4F
:1007C000BF1D880F991FAA1FBB1F2D813E814F811E
:1007D0005885820F931FA41FB51F892B8A2B8B2B43
:1007E00009F0A8CF3FEF831A930AA30AB30AA2CF56
:1007F000C114D104E104F104F9F00F2EFAE02F2E18
:10080000312C412C512CF02DC701B601A2019101D0
:100810000E943A082D833983642E752E80E3860F5B
:100820000E940903D701C601CD80D980E62CF72CA0
:100830000A97A105B10540F781149104A104B10400
:1008400069F080E30E94090391E0891A9108A108E8
:10085000B10881149104A104B10499F780E20E94C7
:10086000090380E20E94090328960FB6F894DEBFC0
:100870000FBECDBFDF91CF91FF90EF90DF90CF9073
:10088000BF90AF909F908F907F906F905F904F90B0
:100890003F902F900895CF93DF93C82FD62F0E94BB
:1008A000D80288E70E94E70280E00E94E7028D2FCD
:1008B0008770806B0E94E7028C2F8F700E94E70286
:1008C0008C2F82958F7080610E94E7020E94E10266
:1008D000DF91CF9108950E94CC020E94D80288E750
:1008E0000E94E70280E00E94E7028EEA0E94E7028F
:1008F00084ED0E94E70280E80E94E70288EA0E94F5
:10090000E7028FE30E94E70283ED0E94E70280E0A6
:100910000E94E70280E40E94E7028DE80E94E7025D
:1009200084E10E94E70281EA0E94E70288EC0E94CB
:10093000E7028AED0E94E70282E10E94E70281E875
:100940000E94E7028FEC0E94E70289ED0E94E70215
:1009500081EF0E94E7028BED0E94E70280E40E9493
:10096000E70280E20E94E70280E00E94E70284EA58
:100970000E94E70286EA0E94E7028FEA0E94E702ED
:100980000E94E10260E080E00E944B040E94F202BB
:1009900008958F929F92AF92CF92DF92EF920F9332
:1009A0001F93CF93DF93CDB7DEB7E82FF92F4083A6
:1009B00051836283038314832583C682D782E086B2
:1009C00081869286A3868D859E85AF85848795874F
:1009D000A68788899989AA898787908BA18B128A93
:1009E000CF01DF91CF911F910F91EF90DF90CF90CA
:1009F000AF909F908F900895CF92DF92EF92FF92E9
:100A00000F931F93CF93DF93E82FF92FE62EF72E46
:100A1000C485D5852685A785B0893189411136C021
:100A20004C9181E090E002C0880F991F3A95E2F75F
:100A3000809584238C93E114F104F9F081E090E037
:100A400002C0880F991F2A95E2F7C82ED82ED0949D
:100A500000E010E088818C29888381E090E00E948A
:100A60002D0188818D21888381E090E00E942D01F5
:100A70000F5F1F4FE016F10669F7DF91CF911F91CD
:100A80000F91FF90EF90DF90CF900895413099F64D
:100A90008C9141E050E002C0440F551F3A95E2F7B7
:100AA000842B8C93C8CFE82FF92F6770628BA081BD
:100AB000B1814C91228181E090E0BC0102C0660FBF
:100AC000771F2A95E2F79B01209524232C93A3817D
:100AD000B4814C912581BC0102C0660F771F2A9515
:100AE000E2F79B01209524232C93A681B7812C91BA
:100AF000308502C0880F991F3A95E2F780958223CE
:100B00008C93A081B1818C9192899170892B8C9367
:100B1000A381B4818C9192899270892B8C93A68148
:100B2000B7818C9192899470892B8C930895E82FCA
:100B3000F92FA185B2858C91938521E030E002C028
:100B4000220F331F9A95E2F7822B8C930895E82F9A
:100B5000F92FA185B2852C91338581E090E002C008
:100B6000880F991F3A95E2F7809582238C93089518
:100B700080E480937C0086E880937A000895ECE717
:100B8000F0E09081907F90839081982B9083EAE7AA
:100B9000F0E0808180648083808186FDFDCF80913C
:100BA00078009091790008956F927F928F929F9232
:100BB000AF92CF92DF92EF920F931F93CF93DF9379
:100BC000CDB7DEB7682E792E842F4D8DF30180834B
:100BD00051836283038314832583C682D782E08690
:100BE00081869286A386838B548B658B068B178BAD
:100BF000208FC18ED28EE38E848E958EA68E8F85A9
:100C00009889A98984879587A6878A899B89AC89D1
:100C10008787908BA18B8D899E89AF89878F90A3C1
:100C2000A1A3888D998DAA8D82A393A3A4A3E12C5F
:100C300002E310E020E030E06B8D7C8DC3018696EE
:100C40000E940402F30110AA17A612AA11AAC30156
:100C5000DF91CF911F910F91EF90DF90CF90AF90E8
:100C60009F908F907F906F9008951F93CF93DF9305
:100C7000C82FD92F162FCE010E945305612FCE0108
:100C800043960E945305DF91CF911F9108950F93D2
:100C90001F93CF93DF93C82FD92F062F172F8FA520
:100CA00098A9893B9B402CF0DF91CF911F910F9128
:100CB000089541E0B801CE010E94FC048FA598A9D7
:100CC000800F911F98AB8FA7EFCF0F931F93CF93F8
:100CD000DF93C82FD92F062F172F8FA598A99923F7
:100CE0002CF4DF91CF911F910F91089540E0B8014E
:100CF000CE010E94FC048FA598A9801B910B98AB94
:100D00008FA7EFCF0F931F93CF93DF93C82FD92FC8
:100D1000062F172F89A99AA9181619062CF0DF910A
:100D2000CF911F910F91089540E0B801CE014396F5
:100D30000E94FC0489A99AA9801B910B9AAB89ABEC
:100D4000EECF0F931F93CF93DF93C82FD92F062F8A
:100D5000172F89A99AA9803D97402CF0DF91CF9158
:100D60001F910F91089541E0B801CE0143960E9472
:100D7000FC0489A99AA9800F911F9AAB89ABEECF89
:100D800064E086960E9462022FEF84E39CE021508B
:100D900080409040E1F700C000000895CF93DF93BA
:100DA000EC01A69667E0CE010E9462022FEF84E379
:100DB0009CE0215080409040E1F700C0000060E0DE
:100DC000CE010E9462022FEF84E39CE0215080401C
:100DD0009040E1F700C00000DF91CF9108950E949C
:100DE000970508950E94A70508954F925F926F920C
:100DF0007F928F929F92AF92BF92CF92DF92EF92AB
:100E0000FF920F931F93CF93DF93482E592E062FF7
:100E1000172F642E752E0E94F206D3018C91882321
:100E200009F41FC15301812C912CE12CF12CC12C10
:100E3000D12C55C0E4012196C60DD71D8881082EFE
:100E4000000C990BC097809FB001819F700D909FFF
:100E5000700D1124842D952D0E9447068881082E3F
:100E6000000C990BC097809F9001819F300D909F3F
:100E7000300D1124C20ED31EB2E08B0E911CE30183
:100E8000C80DD91D8881082E000C990BC097809F32
:100E9000B001819F700D909F700D1124842D952DB0
:100EA0000E94A1068881082E000C990BC097809F94
:100EB0009001819F300D909F300D1124E20EF31EA2
:100EC000842D952D0E94C006FFEF8F1A9F0A5301B3
:100ED000A80CB91CD5018C91882309F48CC08734E7
:100EE00009F4A8CFC0E0D0E00115110571F4ECCFF2
:100EF00061E070E0842D952D0E948206B1E0EB1A2E
:100F0000F10821960C171D07F9F2D501EC91E05379
:100F1000E830B8F70E2E000CFF0BE258F74F0C9498
:100F20005C0861E070E0842D952D0E944706EFEF8C
:100F3000CE1ADE0AE6CF61E070E0842D952D0E9486
:100F4000A106FFEFEF1AFF0ADCCF61E070E0842D0D
:100F5000952D0E94650681E0C81AD108D2CF61E0C4
:100F600070E0842D952D0E94820661E070E0842D52
:100F7000952D0E944706A1E0EA1AF108BFEFCB1AAF
:100F8000DB0ABFCF61E070E0842D952D0E94A106A1
:100F900061E070E0842D952D0E944706EFEFEE1A78
:100FA000FE0AFFEFCF1ADF0AACCF61E070E0842DBC
:100FB000952D0E94A10661E070E0842D952D0E9480
:100FC00065068FEFE81AF80AA1E0CA1AD10899CF8E
:100FD00061E070E0842D952D0E94820661E070E052
:100FE000842D952D0E946506B1E0EB1AF108E1E031
:100FF000CE1AD10886CF842D952D0E94CE06FF20D3
:101000003CF1B701842D952D0E948206B801660F30
:10101000771F660F771F600F711F6C197D09842D74
:10102000952D0E944706842D952D0E94EF06DF9195
:10103000CF911F910F91FF90EF90DF90CF90BF90D5
:10104000AF909F908F907F906F905F904F9008959A
:10105000662777276E197F09842D952D0E94A1069A
:10106000D5CF842D952D0E94CE06E12CF12CC12CDC
:10107000D12CC7CFA1E21A2EAA1BBB1BFD010DC0AC
:10108000AA1FBB1FEE1FFF1FA217B307E407F50738
:1010900020F0A21BB30BE40BF50B661F771F881F14
:1010A000991F1A9469F760957095809590959B01AA
:1010B000AC01BD01CF010895EE0FFF1F0590F49123
:1010C000E02D0994A29FB001B39FC001A39F700DB2
:1010D000811D1124911DB29F700D811D1124911D40
:1010E00008950E946208A59F900DB49F900DA49F43
:1010F000800D911D11240895F894FFCF7807910772
:0C1100009B07A507AF07C207D507E8074B
:10110C004730303131313132363636363231313199
:10111C0031004730303232353532323030343430C1
:10112C00300047303032353534343032363636369E
:10113C00323034343535300047303032323232329E
:10114C003534303032323534303030303000473096
:10115C003032323232353534343030303000473082
:10116C00303232323232353131343030303030008E
:10117C004730303131313133333232323232320066
:10118C004734313733333632353131353236333308
:10119C00370047303031313135323633323535372F
:1011AC003730333332323230303030303000473138
:1011BC0030313135323232363537373536333730E8
:1011CC00303030340047303032323232323230301C
:1011DC003031313134303733333300473031323200
:1011EC0032323531313430303030373333360047EA
:1011FC0030303232323232323030303030353535C8
:10120C0034303030323232323232004730303232D7
:10121C0032323232303030303030353532303434A6
:10122C0032323232323200473030323232323231B4
:10123C0031313100473030323232323232303030AC
:10124C003134343436363635353500473330313178
:10125C003332323232323633370047303031313379
:10126C003232323232323133330047303032323272
:10127C003232323230303031313131303030323252
:10128C003232323200473431373333363232323243
:10129C003531313130303033004734303333333340
:1012AC00323232313131333333323232004734302F
:1012BC0033333333323232313131333333323232FE
:1012CC003131313100473030313131353232323217
:1012DC003633333331303030303030004731303109
:1012EC0031313537333336323232323531313400F5
:1012FC0047303031313135323635323633333331A4
:10130C0030303031313333303030004732303636D4
:10131C0032323232303030313131313232323030AF
:10132C00303030373700000000000000005F000054
:10133C000007000700147F147F14242A7F2A12232D
:10134C001308646236495522500000030000001C4B
:10135C002241000041221C0014083E081408083EDB
:10136C0008080050300000080808080800606000F9
:10137C000020100804023E5149453E00427F4000C7
:10138C00625149494622414949361814127F1027A7
:10139C00454545393C4A49493001710905033649EF
:1013AC00494936064949291E003636000000563692
:1013BC0000000814224100141414141400412214C7
:1013CC00080201510906324979413E7C1211127C06
:1013DC00417F4949363E41414122417F41413E7F57
:1013EC00494949417F090909013E4141497A7F0830
:1013FC0008087F00417F41002040413F017F0814D5
:10140C0022417F404040407F020C027F7F04081045
:10141C007F3E4141413E7F090909063E4151215E13
:10142C007F09192946264949493201017F01013FAB
:10143C004040403F1F2040201F3F4038403F631436
:10144C0008146307087008076151494543007F4140
:10145C00410002040810200041417F0004020102F7
:10146C000440404040400001020400205454547891
:10147C007F484444383844444420384444487F38F6
:10148C0054545418087E090102085454543C7F08E3
:10149C0004047800487D40002040443D007F102823
:1014AC00440000417F40007C047804787C080404EC
:1014BC007838444444387C14141408081414187CE8
:1014CC007C080404084854545420043F4440203CF5
:1014DC004040207C1C2040201C3C4030403C442898
:1014EC001028440C5050503C4464544C4400083672
:1014FC00410000007F000000413608001008081071
:10150C0008496E697469616C697A6564205065720A
:10151C00697068732E2E2E00536574757020506997
:06152C006E732E2E2E004E
:00000001FF
